:100000000C9441000C9400000C9400000C9400002F
:100010000C9400000C9400000C9400000C94000060
:100020000C9400000C9400000C9400000C94000050
:100030000C9400000C9400000C9400000C94000040
:100040000C9400000C9400000C9400000C94000030
:100050000C9400001027E80364000A00010000105F
:10006000000110000100000001002D4E414E00492A
:100070004E460000020004006600010060026800B5
:100080000000F894EE27ECBBF1E0F5BFE5BF8DE092
:10009000A2E0BB27ED938A95E9F780E098E0A0E61F
:1000A000ED930197E9F7E4E7F0E0859195910097EA
:1000B00061F0A591B59105901590BF01F0010590F3
:1000C0000D920197E1F7FB01F0CFEFE5EDBFE8E01E
:1000D000EEBFC0E6D2E00C946D00EFEFEABB442423
:1000E0005524E4E0F0E04E165F0644F50E94560207
:1000F000F2010E945D027F936F93FF93EF930E9442
:100100005602E7E0F0E0E419F5090E945D02AF91C4
:10011000BF918F919F910E947E030E940B03EBBBC6
:10012000A4E6B0E00E94B102E0E0EBBBA4E6B0E0E0
:100130000E94B102F20131962F01D3CFD0CFFFCF71
:100140000E94A7047B816A81F981E88177FB770FA0
:1001500067FD7160972F9E5781F078F0983190F489
:10016000AA27BB27882708948795B795A7959A95BE
:10017000D1F7EA23FB23682305C0E8947727EE270D
:10018000FF2766276F77769508F4606877F9A9915D
:10019000B99189919991EA17FB076807790797FB4D
:1001A00008950E94A7040E9498040E94A0000E9443
:1001B0009D0419F40E94650205C0E6F70E946502DD
:1001C0000E946802249608950E94A70424971A9317
:1001D0000A930E946F020E94BD042CF0EFEFFFEF24
:1001E0006FE77FEF73C00E9474020E94A204ADB754
:1001F000BEB711971F930F930E94BB020F911F91DF
:100200000E9479020E946F02E3EFF4E065E37FE36E
:100210000E94610440F40E947E020E947E030E94BC
:100220007902015010400E9474020E9468027F937C
:100230006F93FF93EF930E947402A0E0B0E080E818
:100240009FE30E947E03AF91BF918F919F910E9487
:100250001C040E9479020E947E020E948002A6E293
:10026000B2E485E69FE30E948702EEE4F1E164E5F3
:1002700070E40E948C020E946F020E94CE037F9362
:100280006F93FF93EF930E949102ADE4B1E184ED8F
:100290009FE30E947703AF91BF918F919F910E943E
:1002A0001C047F936F93FF93EF93F8010E948904DE
:1002B0000E944403A8E1B2E781E39FE30E94CE03DA
:1002C000AF91BF918F919F910E947E031981088108
:1002D0002A9608950E94A70428971A930A930E94C9
:1002E0009602E0E5FCEA6EEA72EC0E94610418F402
:1002F0000E949B0285C0EA85FB856C857D850E94F6
:10030000B90429F4E0E0F0E060E87FE379C00E94FE
:100310009602E8E1F2E761EB72E40E94610409F001
:1003200008F405C0EFEFFFEF6FE77FE769C00E94B9
:100330009602EBE3FAEA68EB7FE30E94CE03EA87DA
:10034000FB876C877D870E9496022BDF0E940D033E
:100350008F010E9496020E9489040E9444030E9419
:100360008C02DF01CB01E0E0F0E060E07FE30E947F
:100370008C020E9479020E947E020E948002ADE6F9
:10038000BCE48CE69DE30E94CE03A6EAB3EE86EEC3
:1003900090E40E947E030E946F020E94CE030E949E
:1003A00079020E949102A8E2BDE886EA91E40E94E7
:1003B0007E03EA83FB836C837D830E947402AA819F
:1003C000BB818C819D810E947E03A3EFB4E085EB0D
:1003D0009FE30E94CE037F936F93FF93EF930E945E
:1003E0006F020E9491020E947703AF91BF918F919B
:1003F0009F910E941C040E94A204D8010E94CC027A
:10040000198108812E9608950E94A70424970E94BE
:10041000A0020E94B90419F40E949B0245C0A8855D
:10042000B9858A859B850E94BD0494F40E94A5022B
:100430000E94B90429F4E0E0F0E060E87FE334C012
:10044000A885B9858A859B850E94AA0243DF2CC0B6
:100450000E94A502DE010E940D030E948E040E94EC
:1004600065020E944403DF01CB010E94A5020E94A5
:10047000C30419F00E949B0217C00E94A0020E94B0
:10048000D802DF01CB010E94AA0224DFE887F987A6
:100490006A877B87E881E17019F40E94A00204C09A
:1004A0000E94A0020E94D8022C960895E0E0F0E09D
:1004B00060E070E40E94A20408950E9489040E94F2
:1004C0004403DF01CB010C9404020E9493040895BD
:1004D000A0E0B0E080E89FE30E9477030895AE813A
:1004E000BF81888599850895EE81FF81688579852A
:1004F0000895EE83FF83688779870895F5DFEFCF4E
:100500000E94CE03EA83FB836C837D8308950E945F
:10051000CE03DF01CB0108950E94AC040E94770353
:100520000895EA81FB816C817D810895AA85BB8550
:100530008C859D850895E0E0F0E060E070E008952E
:10054000E885F9856A857B850895EC81FD816E815A
:100550007F8108950E94E400AC81BD818E819F81DE
:10056000D6CF109639F08AEF90E00197F1F7A89571
:100570001197C9F70895E991F9916991799177FBFC
:10058000660F771F88277E57880B7D938C937EE7B5
:10059000769567956EF00895E991F9916991799151
:1005A00077FB660F771F7A0F769567950EF00895A3
:1005B00030976040704009F070580895552342F418
:1005C000503811F4E0FF04C03196691F791F6BF0B9
:1005D00050E8572711F45F93CFC05F3F31F0660FAB
:1005E000000C57956795752F08955F9300200AF0CA
:1005F000CFC0C8C050E8192E1522880F991F952723
:10060000550F879550E8072E0522660F771F75272F
:10061000550F67950895689401C0E8945F93F2DFE1
:10062000703818F07F3F08F4A7C056E1571BAAF4B2
:10063000519558300EF4593030F0EFEFFFEF6FEF77
:100640007FE777F91AC077275523B9F0EE0FFF1F20
:10065000661F771F5A95D1F710C07727583028F0BA
:10066000EF2FF62F672F5850F9CF552331F076959D
:100670006795F795E7955A95D1F700200AF441D18F
:100680005F910895689401C0E8943097604070408D
:10069000B1F0002426F0772312F4009432D1172E03
:1006A0007EE1112032F07A95EE0FFF1F661F111CBC
:1006B000F9CFEF2FF62F612D5F938ADF5F910895B9
:1006C0004F93AF01FD01DA01AB01BC01CA01402D1E
:1006D000012C142E4F910895EA0FFB1F681F0895F7
:1006E000E095F0956095EF5FFF4F6F4F08955F9332
:1006F00081DF903871F150E8152604C05F937ADFEE
:10070000903839F1703821F1572F591B2BF112F421
:10071000D7DFFACF583118F0AA27BB2788275830DF
:1007200028F0AB2FB82F88275850F9CF552329F040
:100730008695B795A7955A95D9F7502D512572F002
:10074000CBDF38F46795F795E795739513F420C0E0
:10075000B7DF3EDF5F910895D8F7FBCFEA1BFB0BB5
:10076000680B51F010F40094BBDF662392F3EE0F98
:10077000FF1F661F7A95CBF7EE27FF27662777279F
:100780005F910895EFEFFFEF6FE77FEF5F910895BF
:10079000EFEFFFEF6FE77FE75F9108955F932ADF49
:1007A000703851F3903841F301240894791F23F4F1
:1007B0001CF300203AF3ECCF0F921F932F933F933B
:1007C0004F93112722279927689FA0018F9F302DD3
:1007D000410D591F6B9F300D411D591F8E9F27D012
:1007E000BF9F25D06A9F23D0BE9F1DD0AF9F1BD037
:1007F000AE9F110D291F391F491F591FE32FF42FD9
:10080000652F522F4F913F912F911F910F9066238B
:100810002AF0550FEE1FFF1F661F02C073954BF2A3
:10082000CDDE5F910895100D211D391F02C0200DEE
:10083000311D491F591F08955F93DCDE703821F484
:1008400011200AF49FCFA4CF903809F495CF01244A
:100850000894970B1BF4D4F30020F3CF792F1F9348
:100860002F933F934F931124112722273327442797
:10087000552790E2AE17BF078607410730F0AE1B41
:10088000BF0B860B410B089401C08894551F221F93
:10089000331F111CAA1FBB1F881F441F9A9551F7B5
:1008A000F901612D4F913F912F911F91662332F0F5
:1008B000550FEE1FFF1F661F7A9543F27FDE5F9193
:1008C000089599239AF0772342F0971748F029F476
:1008D000AE17BF07860720F031F0989488940895EA
:1008E0009894089408951894889408957723C2F7EB
:1008F000971798F3A9F7EA17FB07680788F399F3A6
:10090000ECCFF09560957095E195FF4F6F4F7F4F5D
:1009100008956F2F660F660B762F0895ED93FD9364
:100920006D937C930895E881F9816A817B810895B4
:10093000A881B9818A819B810895E883F9836A83BC
:100940007B8308957A936A93FA93EA9308959A932E
:100950008A93BA93AA930895182E862F612D192E83
:10096000972F712D1B2EBF2FF12D1A2EAE2FE12D9B
:100970000895309760407040089500240A160B06D1
:10098000080609060895EA17FB076807790708951E
:00000001FF
