:080000000C943D000C9400007B
:100008000C9400000C9400000C9400000C94000068
:100018000C9400000C9400000C9400000C94000058
:100028000C9400000C9400000C9400000C94000048
:100038000C9400000C9400000C9400000C94000038
:100048000C9400000C9400000C9400001027E803A6
:1000580064000A0001000010000110000100010006
:100068002D4E414E00494E460000010060026600D8
:100078000000F894EE27ECBBF1E0F5BFE5BF8DE09A
:10008800A2E0BB27ED938A95E9F780E098E0A0E627
:10009800ED930197E9F7E2E7F0E0859195910097F4
:1000A80061F0A591B59105901590BF01F0010590FB
:1000B8000D920197E1F7FB01F0CFEFE5EDBFE8E026
:1000C800EEBFC0E6D2E00C946900EFEFEABBE1E0D6
:1000D800F0E02F01E9E0F0E04E165F0624F5E0E0DD
:1000E800F0E060E070E40E948E04F2010E94470292
:1000F800DF01CB010E94F701DF01CB010E944C0216
:100108000E9451020E94F702EBBBA8ECB0E00E94EB
:100118009D02E0E0EBBBA8ECB0E00E949D02F2017A
:1001280031962F01D7CFD3CFFFCF0E9493047B8185
:100138006A81F981E88177FB770F67FD7160972FF6
:100148009E5781F078F0983190F4AA27BB2788272A
:1001580008948795B795A7959A95D1F7EA23FB2335
:10016800682305C0E8947727EE27FF2766276F776F
:10017800769508F4606877F9A991B9918991999170
:10018800EA17FB076807790797FB08950E9493040D
:100198000E9484040E9499000E94890419F40E9414
:1001A800560205C0E6F70E9456020E94590224969C
:1001B80008950E94930424971A930A930E94600258
:1001C8000E94A9042CF0EFEFFFEF6FE77FEF71C0FB
:1001D8000E9465020E948E04ADB7BEB711971F93A7
:1001E8000F930E94A7020F911F910E946A020E941A
:1001F8006002E3EFF4E065E37FE30E944D0440F41E
:100208000E946F020E946A030E946A020150104015
:100218000E9465020E9459027F936F93FF93EF93A8
:100228000E946502A0E0B0E080E89FE30E946A03B4
:10023800AF91BF918F919F910E9408040E946A021A
:100248000E946F020E947102A6E2B2E485E69FE373
:100258000E947802EEE4F1E164E570E40E94510244
:100268000E9460020E94BA037F936F93FF93EF93FB
:100278000E947D02ADE4B1E184ED9FE30E94630337
:10028800AF91BF918F919F910E9408047F936F93C4
:10029800FF93EF93F8010E944702A8E1B2E781E3D8
:1002A8009FE30E94BA03AF91BF918F919F910E94E3
:1002B8006A03198108812A9608950E949304289751
:1002C8001A930A930E948202E0E5FCEA6EEA72EC55
:1002D8000E944D0418F40E94870281C0EA85FB85BC
:1002E8006C857D850E94A50419F40E944C0277C094
:1002F8000E948202E8E1F2E761EB72E40E944D0499
:1003080009F008F405C0EFEFFFEF6FE77FE767C07C
:100318000E948202EBE3FAEA68EB7FE30E94BA03E9
:10032800EA87FB876C877D870E9482022FDF0E9405
:10033800F9028F010E9482020E9447020E94510224
:10034800DF01CB01E0E0F0E060E07FE30E945102D2
:100358000E946A020E946F020E947102ADE6BCE42C
:100368008CE69DE30E94BA03A6EAB3EE86EE90E41B
:100378000E946A030E9460020E94BA030E946A02F5
:100388000E947D02A8E2BDE886EA91E40E946A0321
:10039800EA83FB836C837D830E946502AA81BB810B
:1003A8008C819D810E946A03A3EFB4E085EB9FE3F3
:1003B8000E94BA037F936F93FF93EF930E946002AA
:1003C8000E947D020E946303AF91BF918F919F911C
:1003D8000E9408040E948E04D8010E94B802198164
:1003E80008812E9608950E94930424970E948C02F7
:1003F8000E94A50419F40E94870243C0A885B98504
:100408008A859B850E94A90484F40E9491020E9417
:10041800A50419F40E944C0234C0A885B9858A85C0
:100428009B850E94960249DF2CC00E949102DE0142
:100438000E94F9020E947A040E9456020E94300328
:10044800DF01CB010E9491020E94AF0419F00E94C3
:10045800870217C00E948C020E94C402DF01CB01F0
:100468000E9496022ADFE887F9876A877B87E881F6
:10047800E17019F40E948C0204C00E948C020E9450
:10048800C4022C9608950E9475040E9430030895B2
:10049800E0E0F0E060E87FE308950E9498040E949D
:1004A800630308950E947F040895A0E0B0E080E807
:1004B8009FE30E9463030895AE81BF818885998573
:1004C8000895EE81FF81688579850895EE83FF831D
:1004D800688779870895F5DFEFCF0E94BA03EA832A
:1004E800FB836C837D8308950E94BA03DF01CB01EF
:1004F8000895EA81FB816C817D810895AA85BB8579
:100508008C859D850895E0E0F0E060E070E0089556
:10051800E885F9856A857B850895EC81FD816E8182
:100528007F8108950E94DD00AC81BD818E819F810D
:10053800DBCF109639F08AEF90E00197F1F7A89594
:100548001197C9F70895E991F9916991799177FB24
:10055800660F771F88277E57880B7D938C937EE7DD
:10056800769567956EF00895E991F9916991799179
:1005780077FB660F771F7A0F769567950EF00895CB
:1005880030976040704009F070580895552342F440
:10059800503811F4E0FF04C03196691F791F6BF0E1
:1005A80050E8572711F45F93CFC05F3F31F0660FD3
:1005B800000C57956795752F08955F9300200AF0F2
:1005C800CFC0C8C050E8192E1522880F991F95274B
:1005D800550F879550E8072E0522660F771F752758
:1005E800550F67950895689401C0E8945F93F2DF0A
:1005F800703818F07F3F08F4A7C056E1571BAAF4DB
:10060800519558300EF4593030F0EFEFFFEF6FEF9F
:100618007FE777F91AC077275523B9F0EE0FFF1F48
:10062800661F771F5A95D1F710C07727583028F0E2
:10063800EF2FF62F672F5850F9CF552331F07695C5
:100648006795F795E7955A95D1F700200AF441D1B7
:100658005F910895689401C0E894309760407040B5
:10066800B1F0002426F0772312F4009432D1172E2B
:100678007EE1112032F07A95EE0FFF1F661F111CE4
:10068800F9CFEF2FF62F612D5F938ADF5F910895E1
:100698004F93AF01FD01DA01AB01BC01CA01402D46
:1006A800012C142E4F910895EA0FFB1F681F08951F
:1006B800E095F0956095EF5FFF4F6F4F08955F935A
:1006C80081DF903871F150E8152604C05F937ADF16
:1006D800903839F1703821F1572F591B2BF112F44A
:1006E800D7DFFACF583118F0AA27BB278827583008
:1006F80028F0AB2FB82F88275850F9CF552329F069
:100708008695B795A7955A95D9F7502D512572F02A
:10071800CBDF38F46795F795E795739513F420C008
:10072800B7DF3EDF5F910895D8F7FBCFEA1BFB0BDD
:10073800680B51F010F40094BBDF662392F3EE0FC0
:10074800FF1F661F7A95CBF7EE27FF2766277727C7
:100758005F910895EFEFFFEF6FE77FEF5F910895E7
:10076800EFEFFFEF6FE77FE75F9108955F932ADF71
:10077800703851F3903841F301240894791F23F419
:100788001CF300203AF3ECCF0F921F932F933F9363
:100798004F93112722279927689FA0018F9F302DFB
:1007A800410D591F6B9F300D411D591F8E9F27D03A
:1007B800BF9F25D06A9F23D0BE9F1DD0AF9F1BD05F
:1007C800AE9F110D291F391F491F591FE32FF42F01
:1007D800652F522F4F913F912F911F910F906623B4
:1007E8002AF0550FEE1FFF1F661F02C073954BF2CC
:1007F800CDDE5F910895100D211D391F02C0200D17
:10080800311D491F591F08955F93DCDE703821F4AC
:1008180011200AF49FCFA4CF903809F495CF012472
:100828000894970B1BF4D4F30020F3CF792F1F9370
:100838002F933F934F9311241127222733274427BF
:10084800552790E2AE17BF078607410730F0AE1B69
:10085800BF0B860B410B089401C08894551F221FBB
:10086800331F111CAA1FBB1F881F441F9A9551F7DD
:10087800F901612D4F913F912F911F91662332F01D
:10088800550FEE1FFF1F661F7A9543F27FDE5F91BB
:10089800089599239AF0772342F0971748F029F49E
:1008A800AE17BF07860720F031F098948894089512
:1008B8009894089408951894889408957723C2F713
:1008C800971798F3A9F7EA17FB07680788F399F3CE
:1008D800ECCFF09560957095E195FF4F6F4F7F4F86
:1008E80008956F2F660F660B762F0895ED93FD938D
:1008F8006D937C930895E881F9816A817B810895DD
:10090800A881B9818A819B810895E883F9836A83E4
:100918007B8308957A936A93FA93EA9308959A9356
:100928008A93BA93AA930895182E862F612D192EAB
:10093800972F712D1B2EBF2FF12D1A2EAE2FE12DC3
:100948000895309760407040089500240A160B06F9
:10095800080609060895EA17FB0768077907089546
:00000001FF
