:060000000C943D000C947D
:1000060000000C9400000C9400000C9400000C946A
:1000160000000C9400000C9400000C9400000C945A
:1000260000000C9400000C9400000C9400000C944A
:1000360000000C9400000C9400000C9400000C943A
:1000460000000C9400000C9400000C940000102793
:10005600E80364000A00010000100001100001001E
:100066003F0006005B004F0066006D007D00070044
:100076007F006F00F894EE27ECBBF1E0F5BFE5BF1B
:100086008DE0A2E0BB27ED938A95E9F780E098E042
:10009600A0E6ED930197E9F7EFE5EDBFE8E0EEBFE7
:1000A600C0E6D2E00C945700649784E1A0E0B0E08B
:1000B600E6E6F0E00E94BC0000E010E020E030E060
:1000C60040E050E0EFEFEABBE0E0EBBBEFEFE7BB71
:1000D600E0E0E8BBE1E0E8BBE881EBBBAAE0B0E02A
:1000E6000E94B200E2E0E8BBE881EBBBA4E6B0E028
:1000F6000E94B200E1E0E8BB20E030E02A30E0E018
:100106003E0704F500E010E00A30E0E01E079CF42C
:100116000E94A700A5E0B0E00E94B200E1E0E8BBC3
:10012600F801DE01EE0FFF1FAE0FBF1FEC91EBBB18
:100136000F5F1F4FE9CF0E94A700E1E0E8BB2F5FEA
:100146003F4FDCCFC7CFFFCFE2E0E8BBF901DE01CE
:10015600EE0FFF1FAE0FBF1FEC91EBBB089510967D
:1001660039F08AEF90E00197F1F7A8951197C9F752
:100176000895AC0FBD1F05900D928A95E1F708957D
:00000001FF
