:060000000C9438000C9482
:1000060000000C9400000C9400000C9400000C946A
:1000160000000C9400000C9400000C9400000C945A
:1000260000000C9400000C9400000C9400000C944A
:1000360000000C9400000C9400000C9400000C943A
:1000460000000C9400000C9400000C940000102793
:10005600E80364000A00010000100001100001001E
:100066003F065B4F666D7D077F6FF894EE27ECBB0E
:10007600F1E0F5BFE5BF8DE0A2E0BB27ED938A95E1
:10008600E9F780E098E0A0E6ED930197E9F7EFE560
:10009600EDBFE8E0EEBFC0E6D2E00C9452002A972E
:1000A6008AE0A0E0B0E0E6E6F0E00E948C00EFEF28
:1000B600EABBE7BB10E01A30B0F400E00A3088F47F
:1000C60030E0393160F4E1E0E8BBE02F0E947800CF
:1000D600E2E0E8BBE12F0E9478003F5FF2CF0F5FBE
:1000E600EDCF1F5FE8CFE6CFFFCFF0E0DE01AE0F2A
:1000F600BF1FEC91EBBBAAE0B0E00C948200109617
:1001060039F08AEF90E00197F1F7A8951197C9F7B2
:100116000895AC0FBD1F05900D928A95E1F70895DD
:00000001FF
