:080000000C943D000C9400007B
:100008000C9400000C9400000C9400000C94000068
:100018000C9400000C9400000C9400000C94000058
:100028000C9400000C9400000C9400000C94000048
:100038000C9400000C9400000C9400000C94000038
:100048000C9400000C9400000C9400001027E803A6
:1000580064000A00010000100001100001003F00C8
:1000680006005B004F0066006D007D0007007F0002
:100078006F00F894EE27ECBBF1E0F5BFE5BF8DE02B
:10008800A2E0BB27ED938A95E9F780E098E0A0E627
:10009800ED930197E9F7EFE5EDBFE8E0EEBFC0E6C5
:1000A800D2E00C945700649784E1A0E0B0E0E6E663
:1000B800F0E00E94E50000E010E0EFEFEABBE0E0CE
:1000C800EBBBEFEFE7BBE0E0E8BBE1E0E8BBE881D2
:1000D800EBBBAAE0B0E00E94A300E2E0E8BBE88145
:1000E800EBBBA4E6B0E00E94A300E1E0E8BB00E0BF
:1000F80010E00436E0E01E07ACF4E2E0E8BBD8010B
:10010800EAE0F0E00E94C4000E949800E1E0E8BB49
:10011800D801EAE0F0E00E94C9000E9498000F5F51
:100128001F4FE7CFD2CFFFCFDE01EE0FFF1FAE0F7D
:10013800BF1FEC91EBBBA2E3B0E00C94A3001096B8
:1001480039F08AEF90E00197F1F7A8951197C9F770
:100158000895F195E195F04008950024112490E167
:10016800AA0FBB1F001C111C0E1A1F0A18F40E0E32
:100178001F1E01C0A1609A9599F7FD01D00108954D
:1001880012D0EBDF0EF4E5DF0895E894B7FF04C062
:10019800A095B09511966894F7FDDBDFDEDFFD01D1
:1001A8000EF4D7DF0895E894F7FF02C0D2DF689411
:1001B800B7FF06C0A095B095119600F8039400FA11
:1001C8000895AC0FBD1F05900D928A95E1F708952B
:00000001FF
