:020000000C945E
:100002003E000C9400000C9400000C9400000C9430
:1000120000000C9400000C9400000C9400000C945E
:1000220000000C9400000C9400000C9400000C944E
:1000320000000C9400000C9400000C9400000C943E
:1000420000000C9400000C9400000C9400000C942E
:1000520000001027E80364000A00010000100001FC
:100062001000010000003F0006005B004F00660028
:100072006D007D0007007F006F00F894EE27ECBB57
:10008200F1E0F5BFE5BF8DE0A2E0BB27ED938A95D5
:10009200E9F780E098E0A0E6ED930197E9F7EFE554
:1000A200EDBFE8E0EEBFC0E6D2E00C9458006697E0
:1000B20086E1A0E0B0E0E6E6F0E00E94EA0000E0BF
:1000C20010E020E030E040E050E0EFEFEABBE0E09B
:1000D200EBBBEFEFE7BBE0E0E8BB00E010E004368B
:1000E200E0E01E0734F5D801EAE0F0E00E94C90022
:1000F200AF01D801EAE0F0E00E94CE009F01E0E00B
:10010200E883E983A881B9811A9784F4E2E0E8BB25
:10011200FA010E949C00E1E0E8BBF9010E949C0008
:10012200E881F9813196E883F983ECCF0F5F1F4FA5
:10013200D6CFD3CFFFCFDE011296EE0FFF1FAE0F49
:10014200BF1FEC91EBBBA5E0B0E00C94A8001096A9
:1001520039F08AEF90E00197F1F7A8951197C9F766
:100162000895F195E195F04008950024112490E15D
:10017200AA0FBB1F001C111C0E1A1F0A18F40E0E28
:100182001F1E01C0A1609A9599F7FD01D001089543
:1001920012D0EBDF0EF4E5DF0895E894B7FF04C058
:1001A200A095B09511966894F7FDDBDFDEDFFD01C7
:1001B2000EF4D7DF0895E894F7FF02C0D2DF689407
:1001C200B7FF06C0A095B095119600F8039400FA07
:1001D2000895AC0FBD1F05900D928A95E1F7089521
:00000001FF
