:0A0000000C9440000C9400000C94D6
:10000A0000000C9400000C9400000C9400000C9466
:10001A0000000C9400000C9400000C9400000C9456
:10002A0000000C9400000C9400000C9400000C9446
:10003A0000000C9400000C9400000C9400000C9436
:10004A0000000C9400000C9400001027E8036400E0
:10005A000A00010000100001100001003F065B4F7A
:10006A00666D7D077F6F80C00A006002660002002D
:10007A006A0270000000F894EE27ECBBF1E0F5BFCD
:10008A00E5BF8DE0A2E0BB27ED938A95E9F780E012
:10009A0098E0A0E6ED930197E9F7E2E7F0E08591B1
:1000AA009591009761F0A591B59105901590BF01C2
:1000BA00F00105900D920197E1F7FB01F0CFEFE512
:1000CA00EDBFE8E0EEBFC0E6D2E00C946C00A49766
:1000DA00E0E0EAA3EBA300E010E020E030E040E03B
:1000EA0050E0EBBBEFEFEABBE0E0E8BBEFEFE7BBCA
:1000FA00E0E0E5BBEFE0E4BBE0E0E2BBEFEFE1BB51
:10010A00A0E172D0989B02C0999940C0989905C005
:10011A00E3E6F0E0E017F10709F403C00F5F1F4FB1
:10012A0009C0999904C000240016010609F402C006
:10013A0001501040D801EAE0F0E00E945901AF01F5
:10014A00D801EAE0F0E00E945401EAA3FBA320E010
:10015A0030E02233E0E03E07CCF49D9AA0E6B2E01C
:10016A00A40FB51FEC91E2BBA5E0B0E00E943301F9
:10017A009C9AEAA1FBA1E05AFD4FE081E2BBA5E00F
:10018A00B0E00E9433012F5F3F4FE3CFBBCFFFCFD9
:10019A00AA93E8B3EF70AE2FE881E07FEA2BE8BBC1
:1001AA0082E08A95F1F7C29A82E08A95F1F7C298BD
:1001BA0082E08A95F1F743C0AA93A881E9DFE88132
:1001CA00E295E883A881E4DF81E18A95F1F737C0F7
:1001DA00A2E00E942601ACE0EFDFA1E00E94260126
:1001EA00E0E04E2E5E2E0895AA93E7B3E06FE7BBD8
:1001FA00BA9AB89AB99AC298C098C1987880E88190
:10020A00E058E0936C02E881E054E0936D02A4E1C7
:10021A00B0E00E9433010E942C010E942C010E942E
:10022A002C01A0E2B5DF81E28A95F1F7A8E2C4DFEA
:10023A00A4E0C2DFA5E8C0DFA6E0BEDFC9DF2196E1
:10024A0008950E94E100A3E0B0E00C943301A0E31A
:10025A000E94CD0081E28A95F1F70895109639F04F
:10026A008AEF90E00197F1F7A8951197C9F70895D9
:10027A00F195E195F04008950024112490E1AA0F28
:10028A00BB1F001C111C0E1A1F0A18F40E0E1F1E8B
:10029A0001C0A1609A9599F7FD01D001089512D085
:1002AA00EBDF0EF4E5DF0895E894B7FF04C0A095EC
:1002BA00B09511966894F7FDDBDFDEDFFD010EF4E1
:1002CA00D7DF0895E894F7FF02C0D2DF6894B7FF3A
:1002DA0006C0A095B095119600F8039400FA089507
:00000001FF
