:080000000C9446000C94000072
:100008000C9400000C9400000C9400000C94000068
:100018000C9400000C9400000C9400000C94000058
:100028000C9400000C9400000C9400000C94000048
:100038000C9400000C9400000C9400000C94000038
:100048000C9400000C9400000C9400001027E803A6
:1000580064000A000100001000011000010044457E
:1000680043203A20256400444543203A2030256443
:100078000042494E203A2025640080C002006002F8
:1000880082000000F894EE27ECBBF1E0F5BFE5BF75
:100098008DE0A2E0BB27ED938A95E9F780E098E030
:1000A800A0E6ED930197E9F7E4E8F0E085919591F2
:1000B800009761F0A591B59105901590BF01F001E9
:1000C80005900D920197E1F7FB01F0CFEFE5EDBF49
:1000D800E8E0EEBFC0E6D2E00C94BC00BA93AA9365
:1000E8006297E0E0E883E9830E9446040E948A035D
:1000F800A88DB98D0E944204E4F4F901DE01189636
:10010800EE0FFF1FEA0FFB1F0F01E88DF98DA1E02D
:10011800B0E00E941D04D001ED93FC93A88DB98D29
:10012800E2E0F0E00E940A04E88FF98F2F5F3F4F6A
:10013800DFCFF9013197AF015523AAF0F801AAE002
:10014800B0E00E94F2030F01FA01DE011896EE0FEB
:10015800FF1FAE0FBF1F0E943504E00DF11D8F0178
:1001680041505040E9CFF8010E944D046A96089525
:10017800A497E0E0EAA3EBA30E948A03E0E0EBBBCC
:10018800EFEFEABBE0E0E8BBEFEFE7BBE0E0E2BBA4
:10019800EFEFE1BBA0E1CCD000E010E00436E0E0F6
:1001A8001E070CF064C0D801EAE0F0E00E940F04DA
:1001B800AF01D801EAE0F0E00E940A04EAA3FBA339
:1001C80020E030E02233E0E03E078CF4E42FE05FEB
:1001D800EBBBA5E0B0E00E94D303EAA1E05EEBBB75
:1001E800A5E0B0E00E94D3032F5F3F4FEBCFE4E0E0
:1001F800EA93A0E05ED00A30E0E01E073CF0FE0182
:100208007296FA93EA93E6E6F0E006C0FE0172966B
:10021800FA93EA93EFE6F0E0FA93EA93F8010E9482
:100228009103DE01529673D0E1E0EA93A1E041D058
:10023800D80154DFE883F983FE013296FA93EA93F2
:10024800E9E7F0E0FA93EA93EC81FD810E949103DB
:10025800DE0112965CD0A4E6B0E00E94D30302BB94
:10026800A4E6B0E00E94D3030F5F1F4F97CF94CF4F
:10027800FFCFAA93E8B3EF70AE2FE881E07FEA2BB7
:10028800E8BB82E08A95F1F7C29A82E08A95F1F795
:10029800C29882E08A95F1F776C0AA93A881E9DF2F
:1002A800E881E295E883A881E4DF81E18A95F1F7A6
:1002B8006AC0AA93E881F0E0E05AFD4FE081A98185
:1002C800AE0FEBDF5980488022960895A2E00E9485
:1002D8009A03ACE0E2DFA1E00E949A03E0E04E2E30
:1002E8005E2E0895AA93A881AA3011F0571448F0F9
:1002F800E0E0EA934394A42DDCDFA881AA3009F456
:1003080042C05394C09AA881C8DFC0983CC0BA9331
:10031800AA931A93A981BA81ED91A983BA831E2F52
:10032800E03019F0A12FDEDFF5CF1881239608956C
:10033800AA93E7B3E06FE7BBBA9AB89AB99AC2989A
:10034800C098C1987880E881E058E0936202E8811B
:10035800E054E0936302A4E1B0E00E94D3030E945A
:10036800A0030E94A0030E94A003A0E282DF81E212
:100378008A95F1F7A8E291DFA4E08FDFA5E88DDF89
:10038800A6E08BDFA3DF21960895BA93AA931A9368
:100398000A93AA81BB8112960E943504309759F1BD
:1003A800AA81BB8114960E9435048F01309761F0B1
:1003B8000230E0E01E0798F0F80131978F01AA811A
:1003C800BB811496ED93FC93AA81BB811296ED91A3
:1003D800FD913196FE93EE933197AC81A083AA816B
:1003E800BB810E943504FF232AF0ED91FD913196DF
:1003F800FE93EE9306C0AA81BB81EFEFFFEFED936A
:10040800FC931981088125960895BA93AA93269793
:100418000E94460410E0AC85BD85E0E0F0E0ED9375
:10042800FC93EA89FB893196EA8BFB8B3197E4913F
:100438002E2FE03009F415C1E12FE03039F42532D0
:1004480011F411E002C00E94A7030AC1E130A9F427
:10045800253219F40E94A70302C112E040E000E02F
:100468002D3211F401E0FCC02B3211F44BE2F8C03C
:10047800203211F440E2F4C002C0E23039F450E016
:1004880013E0203311F40068EBC003C0E33009F037
:10049800E7C0203310F02A3308F007C0AAE05A9FBB
:1004A800502DE22FE0535E0FDBC0E22FE33649F414
:1004B8000E94AE03E889F989A481AA930E94B40333
:1004C800CEC0E33741F40E94AE030E94BA030E94F3
:1004D80071031E2F0AC0E03761F40E94AE030E9428
:1004E800BA030E947D031E2F086002600F7730E078
:1004F80034C0E43611F0E93611F4046002C0E5377F
:1005080031F4E4E5F0E0EE83FF8315E00CC0E83554
:1005180011F4086003C0E83709F0A1C0EEE5F0E087
:10052800EE83FF8314E002FF14C00E94AE030E9412
:10053800C403AB85AA233AF4EA85FB850E94E1034C
:10054800EA87FB874DE2403011F01F5F01C00B7F47
:1005580004C00E94AE030E94C40300FD11C0151719
:1005680078F407FF08C002FF04C00B7F242F115046
:1005780001C020E301C020E20E94A7035150EFCF41
:10058800312F01FF17C03030A1F003FF06C0EE8104
:10059800FF812591EE83FF8305C0AE81BF812D9138
:1005A800AE83BF830E94A703503009F051503150E9
:1005B800EACF4BC020E3EE81FF810E943904E8872F
:1005C800F987EE81FF813296EE83FF83E885F9850E
:1005D800AA85BB85AE17BF0750F02F5FA885B985E0
:1005E800EA85FB85EA1BFB0BEA87FB87EFCF2A33FB
:1005F80028F003FF02C0295F01C0295D04FD1AC06D
:10060800213320F4A885B985119709F409C0531737
:1006180010F000FF01C013C020E207FF0BC020E369
:10062800006102FF07C00B7F4A930E94B403503059
:1006380009F051500E94A703503009F05150315031
:10064800A885B985129708F0B5CF00FF08C05030CB
:1006580031F05150E0E2EA930E94B403F8CF10E081
:10066800E0CEAC85BD850E9435040E944D04649699
:100678000895FF92F82E26970E9448040E94CC0302
:10068800309719F4EFEFFFEF23C0DE0116960E94B2
:10069800DD038D010E94CC03EE83FF83E0E0E88751
:1006A800E987DE011A960E94DD030E943504FA9359
:1006B800EA931A930A93E9ECF1E0FA93EA93DE01DC
:1006C8001A96A3DE9F01AE81BF81E0E0EC93F901A9
:1006D8000E944F042A96FF900895BA93AA93A9916D
:1006E800B991EE27FF276D91662311F03196FBCF64
:1006F8000895BA93AA93AA27BB27E991F99105907F
:10070800002011F01196FBCFFD01089500E010E0E4
:1007180020E030E040E050E008950E94E5030E94A8
:100728003D0484E00E943D03289608950E945101EB
:10073800A3E0B0E00C94D303A0E30E943D0181E262
:100748008A95F1F708952A93AD85BE85EF85F889D6
:1007580009950895E889F9893497E88BF98B089504
:10076800AD85BE85EF85F88909950895A889B98969
:1007780014960E943504EE83FF83AE81BF810895ED
:10078800A889B98914960E943504EA87FB870895D9
:10079800DE011C960E94DD030E9435040895109620
:1007A80039F08AEF90E00197F1F7A8951197C9F70A
:1007B80008950024AF0DB01D0895F195E195F0401E
:1007C80008956F2F660F660B762F0895FA9FF02D08
:1007D800EB9FF00DEA9FE02DF10D089534D0F6DF80
:1007E8000EF4EBDF08950024112490E1AA0FBB1F3B
:1007F800001C111C0E1A1F0A18F40E0E1F1E01C031
:10080800A1609A9599F7FD01D00108951CD0EBDFFE
:100818000EF4D3DF0895E894B7FF04C0A095B0950F
:1008280011966894F7FDC9DFDEDFFD010EF4C5DF20
:100838000895E894F7FF02C0C0DF6894EA23FB2319
:100848000EF4BBDF0895E894F7FF02C0B6DF6894A2
:10085800B7FF06C0A095B095119600F8039400FA6A
:100868000895ED91FC91119708950590F491E02D6C
:1008780008957A936A93FA93EA93089500240A16DE
:100888000B0608955A934A933A932A931A930A9314
:1008980008955D814C813B812A81198108810895E1
:00000001FF
