:0E0000000C9443000C9400000C9400000C942F
:10000E0000000C9400000C9400000C9400000C9462
:10001E0000000C9400000C9400000C9400000C9452
:10002E0000000C9400000C9400000C9400000C9442
:10003E0000000C9400000C9400000C9400000C9432
:10004E0000000C9400001027E80364000A00010071
:10005E0000100001100001003F065B4F666D7D072A
:10006E007F6F4E756D626572203D2025640080C0E5
:10007E00020060027C000000F894EE27ECBBF1E079
:10008E00F5BFE5BF8DE0A2E0BB27ED938A95E9F7BA
:10009E0080E098E0A0E6ED930197E9F7EEE7F0E057
:1000AE0085919591009761F0A591B5910590159068
:1000BE00BF01F00105900D920197E1F7FB01F0CF22
:1000CE00EFE5EDBFE8E0EEBFC0E6D2E00C946F00C6
:1000DE006A978AE0A0E1B0E0E6E6F0E00E948803CD
:1000EE00E0E0EBBBE8BBE5BBE2BBEFEFEABBE7BB97
:1000FE00E4BBE1BBA0E1A0D010E01A30E0F500E0D7
:10010E000A30B8F5E2E0EA93A0E057D0FE01FA9388
:10011E00EA93E0E7F0E0FA93EA93EAE0E19FF00178
:10012E00DF01E02FF0E0EA0FFB1F0E9468030E9440
:10013E00750384E00E94C4022896DE016CD00E94F2
:10014E001103AAE01A02F001E00FE2BB0E941103B4
:10015E0030E0393160F4E1E0E5BBE02F0E94150399
:10016E00E2E0E5BBE12F0E9415033F5FF2CF0F5F88
:10017E00C7CF1F5FC2CFC0CFFFCFAA93E8B3EF7038
:10018E00AE2FE881E07FEA2BE8BB82E08A95F1F79B
:10019E00C29A82E08A95F1F7C29882E08A95F1F7C9
:1001AE0076C0AA93A881E9DFE881E295E883A88169
:1001BE00E4DF81E18A95F1F76AC0AA93E881F0E065
:1001CE00E05AFD4FE081A981AE0FEBDF59804880E8
:1001DE0022960895A2E00E941D03ACE0E2DFA1E0AA
:1001EE000E941D03E0E04E2E5E2E0895AA93A88174
:1001FE00AA3011F0571448F0E0E0EA934394A42D8E
:10020E00DCDFA881AA3009F442C05394C09AA881B9
:10021E00C8DFC0983CC0BA93AA931A93A981BA8139
:10022E00ED91A983BA831E2FE03019F0A12FDEDFE6
:10023E00F5CF188123960895AA93E7B3E06FE7BB35
:10024E00BA9AB89AB99AC298C098C1987880E8813B
:10025E00E058E0936202E881E054E0936302A4E187
:10026E00B0E00E9456030E9423030E9423030E94C3
:10027E002303A0E282DF81E28A95F1F7A8E291DF03
:10028E00A4E08FDFA5E88DDFA6E08BDFA3DF21964C
:10029E000895BA93AA931A930A93AA81BB811296D0
:1002AE000E946D03309759F1AA81BB8114960E946A
:1002BE006D038F01309761F00230E0E01E0798F079
:1002CE00F80131978F01AA81BB811496ED93FC93AF
:1002DE00AA81BB811296ED91FD913196FE93EE931C
:1002EE003197AC81A083AA81BB810E946D03FF234D
:1002FE002AF0ED91FD913196FE93EE9306C0AA8100
:10030E00BB81EFEFFFEFED93FC93198108812596EA
:10031E000895BA93AA9326970E947A0310E0AC85AB
:10032E00BD85E0E0F0E0ED93FC93EA89FB89319620
:10033E00EA8BFB8B3197E4912E2FE03009F415C137
:10034E00E12FE03039F4253211F411E002C00E94A1
:10035E002A030AC1E130A9F4253219F40E942A03B6
:10036E0002C112E040E000E02D3211F401E0FCC0C9
:10037E002B3211F44BE2F8C0203211F440E2F4C0FB
:10038E0002C0E23039F450E013E0203311F400687B
:10039E00EBC003C0E33009F0E7C0203310F02A337E
:1003AE0008F007C0AAE05A9F502DE22FE0535E0FCF
:1003BE00DBC0E22FE33649F40E943103E889F98964
:1003CE00A481AA930E943703CEC0E33741F40E9462
:1003DE0031030E943D030E94F8021E2F0AC0E0372F
:1003EE0061F40E9431030E943D030E9404031E2FFC
:1003FE00086002600F7730E034C0E43611F0E93661
:10040E0011F4046002C0E53731F4E4E5F0E0EE8368
:10041E00FF8315E00CC0E83511F4086003C0E8371F
:10042E0009F0A1C0EEE5F0E0EE83FF8314E002FFD9
:10043E0014C00E9431030E944703AB85AA233AF4ED
:10044E00EA85FB850E946403EA87FB874DE2403014
:10045E0011F01F5F01C00B7F04C00E9431030E9488
:10046E00470300FD11C0151778F407FF08C002FFFF
:10047E0004C00B7F242F115001C020E301C020E2E5
:10048E000E942A035150EFCF312F01FF17C0303099
:10049E00A1F003FF06C0EE81FF812591EE83FF835D
:1004AE0005C0AE81BF812D91AE83BF830E942A030A
:1004BE00503009F051503150EACF4BC020E3EE815D
:1004CE00FF810E947103E887F987EE81FF813296E2
:1004DE00EE83FF83E885F985AA85BB85AE17BF0736
:1004EE0050F02F5FA885B985EA85FB85EA1BFB0BCB
:1004FE00EA87FB87EFCF2A3328F003FF02C0295F7C
:10050E0001C0295D04FD1AC0213320F4A885B985E8
:10051E00119709F409C0531710F000FF01C013C062
:10052E0020E207FF0BC020E3006102FF07C00B7F34
:10053E004A930E943703503009F051500E942A030B
:10054E00503009F051503150A885B985129708F0F6
:10055E00B5CF00FF08C0503031F05150E0E2EA93C1
:10056E000E943703F8CF10E0E0CEAC85BD850E9427
:10057E006D030E94810364960895FF92F82E2697CC
:10058E000E947C030E944F03309719F4EFEFFFEFA8
:10059E0023C0DE0116960E9460038D010E944F0358
:1005AE00EE83FF83E0E0E887E987DE011A960E947A
:1005BE0060030E946D03FA93EA931A930A93E0E59F
:1005CE00F1E0FA93EA93DE011A96A3DE9F01AE8163
:1005DE00BF81E0E0EC93F9010E9483032A96FF901D
:1005EE000895BA93AA93A991B991EE27FF276D9119
:1005FE00662311F03196FBCF0895BA93AA93AA27DA
:10060E00BB27E991F9910590002011F01196FBCFCF
:10061E00FD010895AAE0B0E00C945603F0E0DE016F
:10062E005096AE0FBF1FEC91EBBBF4CF0E94D800DB
:10063E00A3E0B0E00C945603A0E30E94C40081E254
:10064E008A95F1F708952A93AD85BE85EF85F889D1
:10065E0009950895E889F9893497E88BF98B0895FF
:10066E00AD85BE85EF85F88909950895A889B98964
:10067E0014960E946D03EE83FF83AE81BF810895B1
:10068E00A889B98914960E946D03EA87FB8708959D
:10069E00DE011C960E9460030E946D030895109661
:1006AE0039F08AEF90E00197F1F7A8951197C9F705
:1006BE0008950024AF0DB01D0895F195E195F04019
:1006CE0008956F2F660F660B762F0895ED91FC91AE
:1006DE00119708950590F491E02D08957A936A93F9
:1006EE00FA93EA9308955A934A933A932A931A9354
:1006FE000A9308955D814C813B812A81198108817D
:10070E000895AC0FBD1F05900D928A95E1F70895DF
:00000001FF
