:0C0000000C943D000C9400000C940000D7
:10000C000C9400000C9400000C9400000C94000064
:10001C000C9400000C9400000C9400000C94000054
:10002C000C9400000C9400000C9400000C94000044
:10003C000C9400000C9400000C9400000C94000034
:10004C000C9400000C9400001027E80364000A00D4
:10005C00010000100001100001003F0006005B00D1
:10006C004F0066006D007D0007007F006F00F89464
:10007C00EE27ECBBF1E0F5BFE5BF8DE0A2E0BB27BE
:10008C00ED938A95E9F780E098E0A0E6ED9301976F
:10009C00E9F7EFE5EDBFE8E0EEBFC0E6D2E00C9487
:1000AC005700649784E1A0E0B0E0E6E6F0E00E943F
:1000BC009F0000E010E020E030E0EFEFEABBE0E072
:1000CC00EBBBEFEFE7BBE0E0E8BBE881EBBBE8BBE9
:1000DC0020E030E02A30E0E03E07C4F4F9010E9451
:1000EC008E00EBBB00E010E00A30E0E01E075CF491
:1000FC00F8010E948E00E8BBA4E6B0E00E949500D7
:10010C000F5F1F4FF1CF2F5F3F4FE4CFDECFFFCFFD
:10011C00DE01EE0FFF1FAE0FBF1FEC91089510967E
:10012C0039F08AEF90E00197F1F7A8951197C9F78C
:10013C000895AC0FBD1F05900D928A95E1F70895B7
:00000001FF
