:0C0000000C9433000C9400000C940000E1
:10000C000C9400000C9400000C9400000C94000064
:10001C000C9400000C9400000C9400000C94000054
:10002C000C9400000C9400000C9400000C94000044
:10003C000C9400000C9400000C9400000C94000034
:10004C000C9400000C9400001027E80364000A00D4
:10005C0001000010000110000100F894EE27ECBB29
:10006C00F1E0F5BFE5BF8DE0A2E0BB27ED938A95EB
:10007C00E9F780E098E0A0E6ED930197E9F7EFE56A
:10008C00EDBFE8E0EEBFC0E6D2E00C944D0000E01E
:10009C0010E0EFEFEABBE0E0EBBB00E010E0043671
:1000AC00E0E01E07CCF4D801EAE0F0E00E949A00F0
:1000BC00E05FEBBBA2E3B0E00E947400D801EAE081
:1000CC00F0E00E949500E05EEBBBA2E3B0E00E9482
:1000DC0074000F5F1F4FE3CFE0CFFFCF109639F0C6
:1000EC008AEF90E00197F1F7A8951197C9F7089559
:1000FC00F195E195F04008950024112490E1AA0FA8
:10010C00BB1F001C111C0E1A1F0A18F40E0E1F1E0A
:10011C0001C0A1609A9599F7FD01D001089512D004
:10012C00EBDF0EF4E5DF0895E894B7FF04C0A0956B
:10013C00B09511966894F7FDDBDFDEDFFD010EF460
:10014C00D7DF0895E894F7FF02C0D2DF6894B7FFB9
:10015C0006C0A095B095119600F8039400FA089586
:00000001FF
