:020000000C945E
:100002004A000C9400000C9400000C9400000C9424
:1000120000000C9400000C9400000C9400000C945E
:1000220000000C9400000C9400000C9400000C944E
:1000320000000C9400000C9400000C9400000C943E
:1000420000000C9400000C9400000C9400000C942E
:1000520000001027E80364000A00010000100001FC
:10006200100001003F065B4F666D7D077F6F480001
:1000720080C001002D4E414E00494E4600000A004C
:100082006002660002006A02720001006E027400E1
:100092000000F894EE27ECBBF1E0F5BFE5BF8DE080
:1000A200A2E0BB27ED938A95E9F780E098E0A0E60D
:1000B200ED930197E9F7E0E8F0E0859195910097DB
:1000C20061F0A591B59105901590BF01F0010590E1
:1000D2000D920197E1F7FB01F0CFEFE5EDBFE8E00C
:1000E200EEBFC0E6D2E00C9476002697E1E0E8830A
:1000F200E0E0E983EA83EB83EC83ED8307E010E041
:100102002AE030E048E050E0EBBBEFEFEABBE0E092
:10011200E8BBEFEFE7BBE0E0E5BBEFE0E4BBE0E02C
:10012200E2BBEFEFE1BBA0E1BBD00E947E014BBB83
:100132000E948C010E9490010E9499019E9B02C024
:100142009F994BC09E9914C00F30E0E01E0724F423
:100152000F5F1F4F2F5F3F4FE1E0F0E0E417F5071D
:1001620031F0DA01E2E0F0E00E94D001AF0111C00B
:100172009F990FC000240016010624F4015010407C
:1001820021503040E0E4F0E0E417F50711F0440FAD
:10019200551F0E947E01D901EAE0F0E00E94D501DC
:1001A200EA83FB83D901EAE0F0E00E94D001E88310
:1001B200F983E0E0EC83ED83AC81BD81599754F47F
:1001C2000E9490010E949901EC81FD813196EC839D
:1001D200FD83F2CF4BBB0E948C01ACCFFFCFAA9321
:1001E200E2B3EF70AE2FE881E07FEA2BE2BB82E060
:1001F2008A95F1F7929A82E08A95F1F7929882E0D5
:100202008A95F1F778C0AA93A881E9DFE881E2959F
:10021200E883A881E4DF81E18A95F1F76CC0AA93B3
:10022200E881F0E0E659FD4FE081A981AE0FEBDFF6
:100232005980488022960895A2E00E94A201ACE073
:10024200E2DFA1E00E94A201E0E04E2E5E2E0895C0
:10025200AA93A881AA3011F0571448F0E0E0EA937B
:100262004394A42DDCDFA881AA3009F444C053943E
:10027200909AA881C8DF90983EC0BA93AA931A9325
:10028200E981FA813196E983FA833197E4911E2F4D
:10029200E03019F0A12FDCDFF3CF18812396089507
:1002A200AA93E1B3E06FE1BB8A9A889A899A9298FD
:1002B200909891987880E881E058E0936C02E88108
:1002C200E054E0936D02A4E1B0E00E94AF010E940D
:1002D200A8010E94A8010E94A801A0E280DF81E299
:1002E2008A95F1F7A8E28FDFA4E08DDFA5E88BDF26
:1002F200A6E089DFA1DF219608950E941D010A93DD
:10030200A0E00E941001A0E7B0E00E943E01A2E33B
:10031200B0E00C94AF01A5E0B0E00C94AF01989866
:10032200989AEA81FB81E05AFD4FE081E8BBF3CF66
:100332009998999AE881F981E05AFD4FE081E8BBEA
:10034200EACF0E940401A3E0B0E00C94AF01A0E365
:100352000E94F00081E28A95F1F70895109639F033
:100362008AEF90E00197F1F7A8951197C9F70895E0
:10037200F195E195F04008950024112490E1AA0F2F
:10038200BB1F001C111C0E1A1F0A18F40E0E1F1E92
:1003920001C0A1609A9599F7FD01D001089512D08C
:1003A200EBDF0EF4E5DF0895E894B7FF04C0A095F3
:1003B200B09511966894F7FDDBDFDEDFFD010EF4E8
:1003C200D7DF0895E894F7FF02C0D2DF6894B7FF41
:1003D20006C0A095B095119600F8039400FA08950E
:00000001FF
