:040000000C944E000E
:100004000C9400000C9400000C9400000C9400006C
:100014000C9400000C9400000C9400000C9400005C
:100024000C9400000C9400000C9400000C9400004C
:100034000C9400000C9400000C9400000C9400003C
:100044000C9400000C9400000C9400000C9400002C
:100054001027E80364000A000100001000011000EA
:1000640001003F065B4F666D7D077F6F444543206B
:100074003A20256400444543203A20302564004258
:10008400494E203A2025640080C00A0060026600C0
:1000940002006A028C000000F894EE27ECBBF1E049
:1000A400F5BFE5BF8DE0A2E0BB27ED938A95E9F7A4
:1000B40080E098E0A0E6ED930197E9F7EEE8F0E040
:1000C40085919591009761F0A591B5910590159052
:1000D400BF01F00105900D920197E1F7FB01F0CF0C
:1000E400EFE5EDBFE8E0EEBFC0E6D2E00C94C1005E
:1000F400BA93AA9360970E946C040E949803AE89F5
:10010400BF890E946804E4F4F901DE011696EE0F3B
:10011400FF1FEA0FFB1F0F01EE89FF89A1E0B0E08A
:100124000E944304D001ED93FC93AE89BF89E2E0C1
:10013400F0E00E943004EE8BFF8B2F5F3F4FDFCF48
:10014400F9013197AF015523AAF0F801AAE0B0E014
:100154000E9418040F01FA01DE011696EE0FFF1F2C
:10016400AE0FBF1F0E945B04E00DF11D8F014150D3
:100174005040E9CFF8010E94730468960895A4974B
:10018400E0E0EAA3EBA30E949803E0E0EBBBEFEF0F
:10019400EABBE0E0E8BBEFEFE7BBE0E0E5BBE0EFA4
:1001A400E4BBE0E0E2BBEFEFE1BBA0E1D1D00E9411
:1001B4009F03989B02C099996AC0989905C0E3E689
:1001C400F0E0E017F10709F403C00F5F1F4F09C007
:1001D400999904C000240016010609F402C00150D4
:1001E400104084D0E4E0EA93A0E073D00A30E0E069
:1001F4001E073CF0FE017296FA93EA93E0E7F0E002
:1002040006C0FE017296FA93EA93E9E7F0E0FA93E6
:10021400EA93F8010E94B703DE01529688D0E1E028
:10022400EA93A1E056D0D80163DFE883F983FE01A5
:100234003296FA93EA93E3E8F0E0FA93EA93EC81D6
:10024400FD810E94B703DE01129671D0A2E3B0E0F3
:100254000E94F903D801EAE0F0E00E943504AF01FE
:10026400D801EAE0F0E00E943004EAA3FBA320E016
:1002740030E02233E0E03E072CF40E949F032F5F1E
:100284003F4FF7CF02BBA5E0B0E00E94F9038FCF48
:10029400FFCFAA93E8B3EF70AE2FE881E07FEA2B9B
:1002A400E8BB82E08A95F1F7C29A82E08A95F1F779
:1002B400C29882E08A95F1F776C0AA93A881E9DF13
:1002C400E881E295E883A881E4DF81E18A95F1F78A
:1002D4006AC0AA93E881F0E0E659FD4FE081A98164
:1002E400AE0FEBDF5980488022960895A2E00E9469
:1002F400C003ACE0E2DFA1E00E94C003E0E04E2EC8
:100304005E2E0895AA93A881AA3011F0571448F0DC
:10031400E0E0EA934394A42DDCDFA881AA3009F439
:1003240042C05394C09AA881C8DFC0983CC0BA9315
:10033400AA931A93A981BA81ED91A983BA831E2F36
:10034400E03019F0A12FDEDFF5CF18812396089550
:10035400AA93E7B3E06FE7BBBA9AB89AB99AC2987E
:10036400C098C1987880E881E058E0936C02E881F5
:10037400E054E0936D02A4E1B0E00E94F9030E940E
:10038400C6030E94C6030E94C603A0E282DF81E284
:100394008A95F1F7A8E291DFA4E08FDFA5E88DDF6D
:1003A400A6E08BDFA3DF21960895BA93AA931A934C
:1003B4000A93AA81BB8112960E945B04309759F17B
:1003C400AA81BB8114960E945B048F01309761F06F
:1003D4000230E0E01E0798F0F80131978F01AA81FE
:1003E400BB811496ED93FC93AA81BB811296ED9187
:1003F400FD913196FE93EE933197AC81A083AA814F
:10040400BB810E945B04FF232AF0ED91FD9131969C
:10041400FE93EE9306C0AA81BB81EFEFFFEFED934D
:10042400FC931981088125960895BA93AA93269777
:100434000E946C0410E0AC85BD85E0E0F0E0ED9333
:10044400FC93EA89FB893196EA8BFB8B3197E49123
:100454002E2FE03009F415C1E12FE03039F42532B4
:1004640011F411E002C00E94CD030AC1E130A9F4E5
:10047400253219F40E94CD0302C112E040E000E0ED
:100484002D3211F401E0FCC02B3211F44BE2F8C020
:10049400203211F440E2F4C002C0E23039F450E0FA
:1004A40013E0203311F40068EBC003C0E33009F01B
:1004B400E7C0203310F02A3308F007C0AAE05A9F9F
:1004C400502DE22FE0535E0FDBC0E22FE33649F4F8
:1004D4000E94D403E889F989A481AA930E94DA03CB
:1004E400CEC0E33741F40E94D4030E94E0030E948B
:1004F4007F031E2F0AC0E03761F40E94D4030E94D8
:10050400E0030E948B031E2F086002600F7730E027
:1005140034C0E43611F0E93611F4046002C0E53762
:1005240031F4E4E5F0E0EE83FF8315E00CC0E83538
:1005340011F4086003C0E83709F0A1C0EEE5F0E06B
:10054400EE83FF8314E002FF14C00E94D4030E94D0
:10055400EA03AB85AA233AF4EA85FB850E940704E3
:10056400EA87FB874DE2403011F01F5F01C00B7F2B
:1005740004C00E94D4030E94EA0300FD11C01517B1
:1005840078F407FF08C002FF04C00B7F242F11502A
:1005940001C020E301C020E20E94CD035150EFCFFF
:1005A400312F01FF17C03030A1F003FF06C0EE81E8
:1005B400FF812591EE83FF8305C0AE81BF812D911C
:1005C400AE83BF830E94CD03503009F051503150A7
:1005D400EACF4BC020E3EE81FF810E945F04E887ED
:1005E400F987EE81FF813296EE83FF83E885F985F2
:1005F400AA85BB85AE17BF0750F02F5FA885B985C4
:10060400EA85FB85EA1BFB0BEA87FB87EFCF2A33DE
:1006140028F003FF02C0295F01C0295D04FD1AC050
:10062400213320F4A885B985119709F409C053171B
:1006340010F000FF01C013C020E207FF0BC020E34D
:10064400006102FF07C00B7F4A930E94DA03503017
:1006540009F051500E94CD03503009F051503150EF
:10066400A885B985129708F0B5CF00FF08C05030AF
:1006740031F05150E0E2EA930E94DA03F8CF10E03F
:10068400E0CEAC85BD850E945B040E947304649631
:100694000895FF92F82E26970E946E040E94F2039A
:1006A400309719F4EFEFFFEF23C0DE0116960E9496
:1006B40003048D010E94F203EE83FF83E0E0E887E8
:1006C400E987DE011A960E9403040E945B04FA93F0
:1006D400EA931A930A93E7EDF1E0FA93EA93DE01C1
:1006E4001A96A3DE9F01AE81BF81E0E0EC93F9018D
:1006F4000E9475042A96FF900895BA93AA93A9912B
:10070400B991EE27FF276D91662311F03196FBCF47
:100714000895BA93AA93AA27BB27E991F991059062
:10072400002011F01196FBCFFD01089500E010E0C8
:1007340020E030E040E050E008959C989C9AA0E6C8
:10074400B2E0A40FB51FEC91EBBBA5E0B0E00E94B2
:10075400F9039D989D9AEAA1FBA1E05AFD4FE0811F
:10076400EBBBA5E0B0E00C94F9030E940B040E94DB
:10077400630484E00E944B03289608950E945F015D
:10078400A3E0B0E00C94F903A0E30E944B0181E2E2
:100794008A95F1F708952A93AD85BE85EF85F8898A
:1007A40009950895E889F9893497E88BF98B0895B8
:1007B400AD85BE85EF85F88909950895A889B9891D
:1007C40014960E945B04EE83FF83AE81BF8108957B
:1007D400A889B98914960E945B04EA87FB87089567
:1007E400DE011C960E9403040E945B040895109687
:1007F40039F08AEF90E00197F1F7A8951197C9F7BE
:1008040008950024AF0DB01D0895F195E195F040D1
:1008140008956F2F660F660B762F0895FA9FF02DBB
:10082400EB9FF00DEA9FE02DF10D089534D0F6DF33
:100834000EF4EBDF08950024112490E1AA0FBB1FEE
:10084400001C111C0E1A1F0A18F40E0E1F1E01C0E4
:10085400A1609A9599F7FD01D00108951CD0EBDFB2
:100864000EF4D3DF0895E894B7FF04C0A095B095C3
:1008740011966894F7FDC9DFDEDFFD010EF4C5DFD4
:100884000895E894F7FF02C0C0DF6894EA23FB23CD
:100894000EF4BBDF0895E894F7FF02C0B6DF689456
:1008A400B7FF06C0A095B095119600F8039400FA1E
:1008B4000895ED91FC91119708950590F491E02D20
:1008C40008957A936A93FA93EA93089500240A1692
:1008D4000B0608955A934A933A932A931A930A93C8
:1008E40008955D814C813B812A8119810881089595
:00000001FF
