:0E0000000C944E000C9400000C9400000C9424
:10000E0000000C9400000C9400000C9400000C9462
:10001E0000000C9400000C9400000C9400000C9452
:10002E0000000C9400000C9400000C9400000C9442
:10003E0000000C9400000C9400000C9400000C9432
:10004E0000000C9400001027E80364000A00010071
:10005E0000100001100001003F065B4F666D7D072A
:10006E007F6F444543203A20256400444543203A9F
:10007E00203025640042494E203A2025640080C07D
:10008E000A006002660002006A028C000000F8940A
:10009E00EE27ECBBF1E0F5BFE5BF8DE0A2E0BB279C
:1000AE00ED938A95E9F780E098E0A0E6ED9301974D
:1000BE00E9F7EEE8F0E085919591009761F0A59152
:1000CE00B59105901590BF01F00105900D92019725
:1000DE00E1F7FB01F0CFEFE5EDBFE8E0EEBFC0E6E4
:1000EE00D2E00C94C100BA93AA9360970E94810447
:1000FE000E94A903AE89BF890E947D04E4F4F90130
:10010E00DE011696EE0FFF1FEA0FFB1F0F01EE89A1
:10011E00FF89A1E0B0E00E945804D001ED93FC935A
:10012E00AE89BF89E2E0F0E00E944504EE8BFF8BC2
:10013E002F5F3F4FDFCFF9013197AF015523AAF063
:10014E00F801AAE0B0E00E942D040F01FA01DE01D1
:10015E001696EE0FFF1FAE0FBF1F0E947004E00D2C
:10016E00F11D8F0141505040E9CFF8010E948804E3
:10017E0068960895A497E0E0EAA3EBA30E94A90372
:10018E00E0E0EBBBEFEFEABBE0E0E8BBEFEFE7BB95
:10019E00E0E0E5BBE4BBE2BBEFEFE1BBA0E1E4D006
:1001AE0020E030E02233E0E03E070CF07CC09F9B65
:1001BE0003C00E94B00302C0E0E0EBBB989B02C0FC
:1001CE0099996EC0989905C0E3E6F0E0E017F10743
:1001DE0009F403C00F5F1F4F09C0999904C0002492
:1001EE000016010609F402C0015010408BD0E4E065
:1001FE00EA93A0E07AD00A30E0E01E073CF0FE0160
:10020E007296FA93EA93E0E7F0E006C0FE0172966A
:10021E00FA93EA93E9E7F0E0FA93EA93F8010E9481
:10022E00CC03DE0152968FD0E1E0EA93A1E05DD0DF
:10023E00D80159DFE883F983FE013296FA93EA93E7
:10024E00E3E8F0E0FA93EA93EC81FD810E94CC039F
:10025E00DE01129678D0A2E3B0E00E940E04D8011F
:10026E00EAE0F0E00E944A04AF01D801EAE0F0E0D3
:10027E000E944504EAA3FBA320E030E02233E0E035
:10028E003E072CF40E94B0032F5F3F4FF7CF9F998C
:10029E0007C0E0E0EBBB02BBA4E6B0E00E940E0498
:1002AE002F5F3F4F7FCF7CCFFFCFAA93E8B3EF7086
:1002BE00AE2FE881E07FEA2BE8BB82E08A95F1F76A
:1002CE00C29A82E08A95F1F7C29882E08A95F1F798
:1002DE0076C0AA93A881E9DFE881E295E883A88138
:1002EE00E4DF81E18A95F1F76AC0AA93E881F0E034
:1002FE00E659FD4FE081A981AE0FEBDF59804880B2
:10030E0022960895A2E00E94D503ACE0E2DFA1E0C0
:10031E000E94D503E0E04E2E5E2E0895AA93A8818A
:10032E00AA3011F0571448F0E0E0EA934394A42D5C
:10033E00DCDFA881AA3009F442C05394C09AA88188
:10034E00C8DFC0983CC0BA93AA931A93A981BA8108
:10035E00ED91A983BA831E2FE03019F0A12FDEDFB5
:10036E00F5CF188123960895AA93E7B3E06FE7BB04
:10037E00BA9AB89AB99AC298C098C1987880E8810A
:10038E00E058E0936C02E881E054E0936D02A4E142
:10039E00B0E00E940E040E94DB030E94DB030E9469
:1003AE00DB03A0E282DF81E28A95F1F7A8E291DF1A
:1003BE00A4E08FDFA5E88DDFA6E08BDFA3DF21961B
:1003CE000895BA93AA931A930A93AA81BB8112969F
:1003DE000E947004309759F1AA81BB8114960E9435
:1003EE0070048F01309761F00230E0E01E0798F044
:1003FE00F80131978F01AA81BB811496ED93FC937E
:10040E00AA81BB811296ED91FD913196FE93EE93EA
:10041E003197AC81A083AA81BB810E947004FF2317
:10042E002AF0ED91FD913196FE93EE9306C0AA81CE
:10043E00BB81EFEFFFEFED93FC93198108812596B9
:10044E000895BA93AA9326970E94810410E0AC8572
:10045E00BD85E0E0F0E0ED93FC93EA89FB893196EF
:10046E00EA8BFB8B3197E4912E2FE03009F415C106
:10047E00E12FE03039F4253211F411E002C00E9470
:10048E00E2030AC1E130A9F4253219F40E94E20315
:10049E0002C112E040E000E02D3211F401E0FCC098
:1004AE002B3211F44BE2F8C0203211F440E2F4C0CA
:1004BE0002C0E23039F450E013E0203311F400684A
:1004CE00EBC003C0E33009F0E7C0203310F02A334D
:1004DE0008F007C0AAE05A9F502DE22FE0535E0F9E
:1004EE00DBC0E22FE33649F40E94E903E889F9897B
:1004FE00A481AA930E94EF03CEC0E33741F40E9479
:10050E00E9030E94F5030E9490031E2F0AC0E037F4
:10051E0061F40E94E9030E94F5030E949C031E2FC2
:10052E00086002600F7730E034C0E43611F0E9362F
:10053E0011F4046002C0E53731F4E4E5F0E0EE8337
:10054E00FF8315E00CC0E83511F4086003C0E837EE
:10055E0009F0A1C0EEE5F0E0EE83FF8314E002FFA8
:10056E0014C00E94E9030E94FF03AB85AA233AF44C
:10057E00EA85FB850E941C04EA87FB874DE240302A
:10058E0011F01F5F01C00B7F04C00E94E9030E949F
:10059E00FF0300FD11C0151778F407FF08C002FF16
:1005AE0004C00B7F242F115001C020E301C020E2B4
:1005BE000E94E2035150EFCF312F01FF17C03030B0
:1005CE00A1F003FF06C0EE81FF812591EE83FF832C
:1005DE0005C0AE81BF812D91AE83BF830E94E20321
:1005EE00503009F051503150EACF4BC020E3EE812C
:1005FE00FF810E947404E887F987EE81FF813296AD
:10060E00EE83FF83E885F985AA85BB85AE17BF0704
:10061E0050F02F5FA885B985EA85FB85EA1BFB0B99
:10062E00EA87FB87EFCF2A3328F003FF02C0295F4A
:10063E0001C0295D04FD1AC0213320F4A885B985B7
:10064E00119709F409C0531710F000FF01C013C031
:10065E0020E207FF0BC020E3006102FF07C00B7F03
:10066E004A930E94EF03503009F051500E94E2036A
:10067E00503009F051503150A885B985129708F0C5
:10068E00B5CF00FF08C0503031F05150E0E2EA9390
:10069E000E94EF03F8CF10E0E0CEAC85BD850E943E
:1006AE0070040E94880464960895FF92F82E26978F
:1006BE000E9483040E940704309719F4EFEFFFEFB6
:1006CE0023C0DE0116960E9418048D010E940704B5
:1006DE00EE83FF83E0E0E887E987DE011A960E9449
:1006EE0018040E947004FA93EA931A930A93E8EEA0
:1006FE00F1E0FA93EA93DE011A96A3DE9F01AE8132
:10070E00BF81E0E0EC93F9010E948A042A96FF90E3
:10071E000895BA93AA93A991B991EE27FF276D91E7
:10072E00662311F03196FBCF0895BA93AA93AA27A8
:10073E00BB27E991F9910590002011F01196FBCF9E
:10074E00FD01089500E010E020E030E040E050E0D0
:10075E000895E2E0EBBBA0E6B2E0A40FB51FAC91AA
:10076E00EFEFEA1BE2BBA5E0B0E00E940E04E1E071
:10077E00EBBBEAA1FBA1E05AFD4FA081EFEFEA1B14
:10078E00E2BBA5E0B0E00C940E040E9420040E948F
:10079E00780484E00E945C03289608950E947001FC
:1007AE00A3E0B0E00C940E04A0E30E945C0181E291
:1007BE008A95F1F708952A93AD85BE85EF85F88960
:1007CE0009950895E889F9893497E88BF98B08958E
:1007DE00AD85BE85EF85F88909950895A889B989F3
:1007EE0014960E947004EE83FF83AE81BF8108953C
:1007FE00A889B98914960E947004EA87FB87089528
:10080E00DE011C960E9418040E9470040895109632
:10081E0039F08AEF90E00197F1F7A8951197C9F793
:10082E0008950024AF0DB01D0895F195E195F040A7
:10083E0008956F2F660F660B762F0895FA9FF02D91
:10084E00EB9FF00DEA9FE02DF10D089534D0F6DF09
:10085E000EF4EBDF08950024112490E1AA0FBB1FC4
:10086E00001C111C0E1A1F0A18F40E0E1F1E01C0BA
:10087E00A1609A9599F7FD01D00108951CD0EBDF88
:10088E000EF4D3DF0895E894B7FF04C0A095B09599
:10089E0011966894F7FDC9DFDEDFFD010EF4C5DFAA
:1008AE000895E894F7FF02C0C0DF6894EA23FB23A3
:1008BE000EF4BBDF0895E894F7FF02C0B6DF68942C
:1008CE00B7FF06C0A095B095119600F8039400FAF4
:1008DE000895ED91FC91119708950590F491E02DF6
:1008EE0008957A936A93FA93EA93089500240A1668
:1008FE000B0608955A934A933A932A931A930A939E
:10090E0008955D814C813B812A811981088108956A
:00000001FF
