:0E0000000C943D000C9400000C9400000C9435
:10000E0000000C9400000C9400000C9400000C9462
:10001E0000000C9400000C9400000C9400000C9452
:10002E0000000C9400000C9400000C9400000C9442
:10003E0000000C9400000C9400000C9400000C9432
:10004E0000000C9400001027E80364000A00010071
:10005E0000100001100001003F0006005B004F0081
:10006E0066006D007D0007007F006F00F894EE279C
:10007E00ECBBF1E0F5BFE5BF8DE0A2E0BB27ED9351
:10008E008A95E9F780E098E0A0E6ED930197E9F70D
:10009E00EFE5EDBFE8E0EEBFC0E6D2E00C9457000E
:1000AE00649784E1A0E0B0E0E6E6F0E00E94D800BC
:1000BE0000E010E0EFEFEABBE0E0EBBBEFEFE7BBF9
:1000CE00E0E0E8BBE881EBBBE8BB00E010E0043603
:1000DE00E0E01E07DCF4D801EAE0F0E00E94B70091
:1000EE000E948F00EBBBA2E3B0E00E949600D80105
:1000FE00EAE0F0E00E94BC000E948F00E8BBA2E3A1
:10010E00B0E00E9496000F5F1F4FE1CFDBCFFFCF15
:10011E00DE01EE0FFF1FAE0FBF1FEC91089510967C
:10012E0039F08AEF90E00197F1F7A8951197C9F78A
:10013E000895F195E195F04008950024112490E181
:10014E00AA0FBB1F001C111C0E1A1F0A18F40E0E4C
:10015E001F1E01C0A1609A9599F7FD01D001089567
:10016E0012D0EBDF0EF4E5DF0895E894B7FF04C07C
:10017E00A095B09511966894F7FDDBDFDEDFFD01EB
:10018E000EF4D7DF0895E894F7FF02C0D2DF68942B
:10019E00B7FF06C0A095B095119600F8039400FA2B
:1001AE000895AC0FBD1F05900D928A95E1F7089545
:00000001FF
